:020000040800F2
:1000000000800020152900088F0D0008910D0008C0
:10001000930D0008950D0008970D000800000000E2
:10002000000000000000000000000000990D000822
:100030009B0D0008000000009D0D00089F0D0008AA
:100040006529000865290008652900086529000858
:100050006529000865290008A70D00086529000822
:100060006529000865290008652900086529000838
:100070006529000865290008652900086529000828
:1000800065290008000000006529000865290008AE
:100090006529000865290008652900086529000808
:1000A00065290008652900086529000865290008F8
:1000B00065290008652900086529000865290008E8
:1000C00065290008652900086529000865290008D8
:1000D00065290008652900086529000865290008C8
:1000E00065290008652900086529000865290008B8
:1000F000652900086529000865290008000000003E
:1001000000000000652900080000000065290008C3
:10011000652900080000000065290008652900081D
:100120006529000865290008652900086529000877
:100130006529000800000000000000006529000893
:100140006529000865290008000000000000000083
:10015000000000000000000000000000000000009F
:1001600000000000000000000000000065290008F9
:1001700065290008000000000000000000000000E9
:1001800000000000652900080000000000000000D9
:10019000000000000000000000000000000000005F
:1001A0000000000000000000652900086529000823
:1001B000652900086529000865290008000000007D
:1001C0000000000065290008000000000000000099
:0801D0006529000865290008FB
:1001E000034613F8012B002AFBD1181A0138704777
:1001F00001F0FF01102A2BDB10F0070F08D010F8D8
:10020000013B013A8B422DD010F0070F42B3F6D1DB
:10021000F0B441EA012141EA014122F007047FF0F4
:1002200000070023F0E80256083C85EA010586EA4B
:10023000010685FA47F5A3FA87F586FA47F6A5FA87
:1002400087F68EB9EED1F0BC01F0FF0102F0070293
:1002500032B110F8013B013A83EA010313B1F8D13E
:100260000020704701387047002D06BF354603381F
:10027000073815F0010F07D1013015F4807F02BF58
:10028000013015F4C03F0130F0BC0138704700BFA9
:1002900070B54FF0FF0C4CF4E06C1CEA11541DBF1C
:1002A0001CEA135594EA0C0F95EA0C0F00F0DEF8E7
:1002B0002C4481EA030621EA4C5123EA4C5350EACC
:1002C000013518BF52EA033541F4801143F480131D
:1002D00038D0A0FB02CE4FF00005E1FB02E506F0AE
:1002E0000042E0FB03E54FF00006E1FB03569CF003
:1002F000000F18BF4EF0010EA4F1FF04B6F5007F09
:1003000064F5407404D25FEA4E0E6D4146EB06067A
:1003100042EAC62141EA55514FEAC52040EA5E5003
:100320004FEACE2EB4F1FD0C88BFBCF5E06F1ED8AD
:10033000BEF1004F08BF5FEA500E50F1000041EBE4
:10034000045170BD06F0004646EA010140EA020091
:1003500081EA0301B4EB5C04C2BFD4EB0C0541EAB3
:10036000045170BD41F480114FF0000E013C00F3C8
:10037000AB8014F1360FDEBF002001F0004170BDEC
:10038000C4F10004203C35DA0C341BDC04F1140405
:10039000C4F1200500FA05F320FA04F001FA05F291
:1003A00040EA020001F0004221F0004110EBD3705E
:1003B00021FA04F642EB06015EEA430E08BF20EA8A
:1003C000D37070BDC4F10C04C4F1200500FA04F32D
:1003D00020FA05F001FA04F240EA020001F00041BF
:1003E00010EBD37041F100015EEA430E08BF20EA32
:1003F000D37070BDC4F1200500FA05F24EEA020E7A
:1004000020FA04F301FA05F243EA020321FA04F0A8
:1004100001F0004121FA04F220EA020000EBD3705F
:100420005EEA430E08BF20EAD37070BD94F0000F5F
:100430000FD101F00046400041EB010111F4801F93
:1004400008BF013CF7D041EA060195F0000F18BF44
:10045000704703F00046520043EB030313F4801F80
:1004600008BF013DF7D043EA0603704794EA0C0F3A
:100470000CEA135518BF95EA0C0F0CD050EA410650
:1004800018BF52EA4306D1D181EA030101F00041CD
:100490004FF0000070BD50EA410606BF10461946F5
:1004A00052EA430619D094EA0C0F02D150EA013601
:1004B00013D195EA0C0F05D152EA03361CBF104642
:1004C00019460AD181EA030101F0004141F0FE41E1
:1004D00041F470014FF0000070BD41F0FE4141F465
:1004E000780170BD81F0004102E000BF83F000435D
:1004F00030B54FEA41044FEA430594EA050F08BFBF
:1005000090EA020F1FBF54EA000C55EA020C7FEA82
:10051000645C7FEA655C00F0E2804FEA5454D4EBFF
:100520005555B8BF6D420CDD2C4480EA020281EAC9
:10053000030382EA000083EA010180EA020281EA01
:100540000303362D88BF30BD11F0004F4FEA013153
:100550004FF4801C4CEA113102D0404261EB410162
:1005600013F0004F4FEA03334CEA133302D05242E8
:1005700063EB430394EA050F00F0A780A4F10104A4
:10058000D5F1200E0DDB02FA0EFC22FA05F28018DE
:1005900041F1000103FA0EF2801843FA05F35941C4
:1005A0000EE0A5F120050EF1200E012A03FA0EFC43
:1005B00028BF4CF0020C43FA05F3C01851EBE3716D
:1005C00001F0004507D54FF0000EDCF1000C7EEB8A
:1005D00000006EEB0101B1F5801F1BD3B1F5001FC8
:1005E0000CD349085FEA30004FEA3C0C04F10104E7
:1005F0004FEA445212F5800F80F09A80BCF1004F10
:1006000008BF5FEA500C50F1000041EB045141EA91
:10061000050130BD5FEA4C0C404141EB0101013C5A
:1006200028BFB1F5801FE9D291F0000F04BF014649
:100630000020B1FA81F308BF2033A3F10B03B3F11B
:1006400020020CDA0C3208DD02F1140CC2F10C02AB
:1006500001FA0CF021FA02F10CE002F11402D8BF09
:10066000C2F1200C01FA02F120FA0CFCDCBF41EAD5
:100670000C019040E41AA2BF01EB0451294330BDA4
:100680006FEA04041F3C1CDA0C340EDC04F1140481
:10069000C4F1200220FA04F001FA02F340EA030058
:1006A00021FA04F345EA030130BDC4F10C04C4F19E
:1006B000200220FA02F001FA04F340EA030029467E
:1006C00030BD21FA04F0294630BD94F0000F83F4C8
:1006D000801306BF81F480110134013D4EE77FEAAB
:1006E000645C18BF7FEA655C29D094EA050F08BFF7
:1006F00090EA020F05D054EA000C04BF19461046D8
:1007000030BD91EA030F1EBF0021002030BD5FEA1B
:10071000545C05D14000494128BF41F0004130BD43
:1007200014F580043CBF01F5801130BD01F0004597
:1007300045F0FE4141F470014FF0000030BD7FEA0A
:10074000645C1ABF194610467FEA655C1CBF0B4605
:10075000024650EA013406BF52EA033591EA030F1C
:1007600041F4002130BD00BF90F0000F04BF002114
:10077000704730B54FF4806404F132044FF0000547
:100780004FF0000150E700BF90F0000F04BF0021C0
:10079000704730B54FF4806404F1320410F0004526
:1007A00048BF40424FF000013EE700BF42004FEA21
:1007B000E2014FEA31014FEA02701FBF12F07F439E
:1007C00093F07F4F81F06051704732F07F4208BF55
:1007D000704793F07F4F04BF41F40021704730B55C
:1007E0004FF4607401F0004521F000411CE700BFA8
:1007F00050EA010208BF704730B54FF000050AE02B
:1008000050EA010208BF704730B511F0004502D52B
:10081000404261EB41014FF4806404F132045FEA2D
:10082000915C3FF4D8AE4FF003025FEADC0C18BFD6
:1008300003325FEADC0C18BF033202EBDC02C2F1C8
:10084000200300FA03FC20FA02F001FA03FE40EA5A
:100850000E0021FA02F11444BDE600BF4A0011D295
:1008600012F5001211D20DD56FF47873B3EB62520A
:100870000ED44FEAC12343F0004343EA505323FA16
:1008800002F070474FF00000704750EA013002D18B
:100890004FF0FF3070474FF00000704753B94AB92E
:1008A000002908BF00281CBF4FF0FF314FF0FF3078
:1008B00000F00CB8ADF1080C6DE904CE02F0F6FCC6
:1008C000DDF804E0DDE9022304B07047704700BFA3
:1008D00010B5054C237833B9044B13B10448AFF37A
:1008E00000800123237010BD5C0000200000000088
:1008F0007435000808B5034B1BB103490348AFF337
:10090000008008BD00000000600000207435000871
:1009100070B58AB00024059406940794089409944D
:10092000294BDA6C42F00402DA64DA6C02F0040259
:100930000192019ADA6C42F02002DA64DA6C02F079
:1009400020020292029ADA6C42F00102DA64DA6C56
:1009500002F001020392039ADA6C42F00202DA64B6
:10096000DB6C03F002030493049B184E2246012122
:10097000304600F0CEFB4FF4005305934FF488133C
:100980000693079405A9304600F0D2FA0125059593
:1009900006950794089405A9304600F0C9FA059514
:1009A0004FF444130693079405A94FF0904000F0CC
:1009B000BFFA22462146062000F060FA062000F029
:1009C00095FA0AB070BD00BF001002400008004850
:1009D00070B501214FF0904000F094FB10B1284B0E
:1009E0001B785BB101214FF0904000F08BFB20B9E8
:1009F000234B1B78DBB2012B0CD070BD214C204661
:100A000001F0D6F923685A6A1F4B1A601C4B012269
:100A10001A70F2E71B4C23685B6A1C4E3360204659
:100A200001F004FA236800255D62204601F0C0F958
:100A30003068154B1B68C01AFFF796FE0CA3D3E96C
:100A40000023FFF725FC0CA3D3E90023FFF720FCCC
:100A500000220F4BFFF71CFCFFF700FFC0B20D4B4D
:100A60001870074B1D700C4B01221A70C5E700BFB0
:100A7000842A357BA015783F006F8104C58FA13F84
:100A8000790000200C010020680100206401002092
:100A90000000E03F780000206201002072B6FEE70F
:100AA00008B51548154B03604FF4E133436000234C
:100AB0008360C36003610C2242618361036243620D
:100AC000836201F063FE70B900210B4801F0D7FE8C
:100AD00058B90021084801F0F7FE40B9064801F076
:100AE000AFFE30B908BDFFF7D9FFFFF7D7FFFFF71B
:100AF000D5FFFFF7D3FF00BF7C000020008000403F
:100B000000B589B0002304930593069307930193DE
:100B10000293039312484FF0804202604360836067
:100B2000104AC2600361836101F0F0F990B94FF49B
:100B30008053049304A90A4801F026FA60B90023FF
:100B40000193039301A9064801F0BAFA30B909B03C
:100B50005DF804FBFFF7A2FFFFF7A0FFFFF79EFF82
:100B60000C010020789C620000B595B0382200216D
:100B700006A801F019FF0020019002900390049054
:100B8000059000F0D9FA022306934FF4807209927F
:100B900040220A920D930E9304220F925522109236
:100BA00011931293139306A800F080FB80B90F23D2
:100BB00001930323029300230393049305930421D9
:100BC0000DEB010000F02AFE20B915B05DF804FB22
:100BD000FFF764FFFFF762FF08B500F01BF9FFF7AE
:100BE000C3FFFFF795FEFFF75BFFFFF789FF0022CA
:100BF0000121274800F08DFA002201214FF090409A
:100C000000F087FA0023234A1370234A1370234805
:100C100001F0CEF8214B1B685A6A40F2A3639A4256
:100C2000F8D11E4C204601F001F9236800225A62D7
:100C300001221146164800F06CFA204601F0B8F87F
:100C4000164B1B685A6A40F2A3639A42F8D1134CC0
:100C5000204601F0EBF8236800225A6201210C487B
:100C600000F057FA0B4B1B78002BFBD00A4B1A787D
:100C70000B4C0C49204601F077FE2046FFF7B0FAF6
:100C80004FF0FF3382B22146074801F0D6FCB9E7A6
:100C90000008004862010020780000200C010020BC
:100CA000580100208C3500087C00002000B583B07E
:100CB0000B4B1A6E42F001021A661A6E02F0010224
:100CC0000092009A9A6D42F080529A659B6D03F0F3
:100CD00080530193019B00F0B5FA03B05DF804FB6B
:100CE0000010024010B598B00446002113911491F1
:100CF000159116911791442202A801F055FE226821
:100D0000174B9A4201D018B010BD2023029302A8BD
:100D100000F0AAFE00BB134BDA6D42F00102DA6567
:100D2000DA6D02F001020092009ADA6C42F00102E0
:100D3000DA64DB6C03F001030193019B0C23139332
:100D400002221492002215921692179313A94FF0C3
:100D5000904000F0EDF8D6E7FFF7A0FEDBE700BF1C
:100D600000800040001002400368B3F1804F00D0C3
:100D7000704782B003F504339A6D42F001029A6520
:100D80009B6D03F001030193019B02B07047FEE7E6
:100D9000FEE7FEE7FEE7FEE770477047704708B5DD
:100DA00000F048F808BD08B5012000F0B7F908BD0B
:100DB000034AD2F8883043F47003C2F88830704791
:100DC00000ED00E0104B1B680BB90120704710B517
:100DD00004464FF47A70B0FBF3F30C4A1068B0FB92
:100DE000F3F000F091F868B90F2C01D901200AE066
:100DF000002221464FF0FF3000F040F8044B1C6009
:100E0000002000E0012010BD0400002000000020B0
:100E10000800002010B5032000F01EF80020FFF7A6
:100E2000D1FF10B10124204610BD0446FFF73EFF5C
:100E3000F9E70000034A1368034909680B4413608B
:100E4000704700BF6C01002004000020014B1868AF
:100E5000704700BF6C010020074AD36823F4E063A9
:100E60001B041B0C000200F4E060034343F0BF636B
:100E700043F40033D360704700ED00E000B5194B38
:100E8000DB68C3F30223C3F1070CBCF1040F28BFD6
:100E90004FF0040C03F1040EBEF1060F18D9033B0A
:100EA0004FF0FF3E0EFA0CFC21EA0C0199400EFABD
:100EB00003FE22EA0E020A4300280BDB1201D2B223
:100EC00000F1604000F5614080F800235DF804FB0C
:100ED0000023E5E700F00F001201D2B2024B1A54D2
:100EE000F4E700BF00ED00E014ED00E0002807DBB0
:100EF00000F01F02400901239340024A42F82030CB
:100F0000704700BF00E100E00138B0F1807F0BD2F4
:100F10004FF0E0235861054AF02182F823100020A9
:100F2000986107221A6170470120704700ED00E0C8
:100F3000F0B583B0002362E085685E000324B4400E
:100F400025EA0405CC68B4402C438460456825EA52
:100F50000C054C68C4F300149C402C4344605FE0D3
:100F6000DD08083550F8254003F0070C4FEA8C0CDB
:100F70004FF00F0E0EFA0CFE24EA0E0E0C6904FA66
:100F80000CF444EA0E0440F8254060E0052400E03B
:100F9000002404FA0EF42C430CF1020C554D45F8D4
:100FA0002C40554CA568D44325EA02064F6817F437
:100FB000801F01D042EA05064F4DAE60ED6804EA9D
:100FC00005064F6817F4001F01D042EA05064A4D96
:100FD000EE606D6804EA05064F6817F4003F01D023
:100FE00042EA0506444D6E602D682C404E6816F4AA
:100FF000803F01D042EA05043F4A146001330A6889
:1010000032FA03F474D04FF0010C0CFA03FC1CEA22
:101010000202F3D04C6804F00304013C012C8BD98C
:101020004C6804F00304032C0CD0C4685D004FF03E
:10103000030C0CFA05FC24EA0C0C8C68AC4044EA66
:101040000C04C4604C6804F00304022C88D00468CB
:101050004FEA430E4FF0030C0CFA0EFC24EA0C0C82
:101060004C6804F0030404FA0EF444EA0C0404602F
:101070004C6814F4403FC1D0204C256E45F001056A
:101080002566246E04F001040194019C4FEA930C40
:101090000CF10205174C54F8255003F0030E4FEAEB
:1010A0008E0E0F2404FA0EF425EA0405B0F1904FD9
:1010B0003FF46EAF124CA04212D004F58064A042FF
:1010C00010D004F58064A0420ED004F58064A042E4
:1010D0000CD004F58064A0423FF458AF062458E7D2
:1010E000012456E7022454E7032452E7042450E77E
:1010F00003B0F0BD000001400004014000100240B8
:10110000000400480369194201D001207047002003
:1011100070470AB1816170478162704708B5054B1D
:101120005B69034200D108BD024B5861FFF750FCD8
:10113000F9E700BF00040140002836D13E4B1B6890
:1011400003F4C063B3F5806F08D03B4AD2F8803017
:1011500023F48073C2F8803000207047364AD2F8FA
:10116000803023F48073C2F88030136823F4C063A6
:1011700043F400731360314B1B68322202FB03F30C
:101180002F4AA2FB03239B0C013300E0013B2A4AB8
:10119000526912F4806F01D0002BF7D1264B5B69A6
:1011A00013F4806F44D100207047B0F5007F08D061
:1011B000214A136823F4C06343F480631360002062
:1011C00070471D4B1B6803F4C063B3F5806F08D0F4
:1011D000194AD2F8803043F48073C2F8803000207E
:1011E0007047154AD2F8803043F48073C2F88030DB
:1011F000136823F4C06343F4007313600F4B1B6840
:10120000322202FB03F30E4AA2FB03239B0C0133A1
:1012100000E0013B084A526912F4806F01D0002BB4
:10122000F7D1054B5B6913F4806F03D10020704741
:10123000032070470320704700700040000000202A
:1012400083DE1B43024A936843F4804393607047F4
:1012500000700040124BDA6802F00302DB68C3F34F
:1012600003130133032A11D00E48B0FBF3F00C4BEB
:10127000DB68C3F3062303FB00F0094BDB68C3F311
:10128000416301335B00B0FBF3F070470648B0FBED
:10129000F3F0034BDB68C3F3062303FB00F0ECE73A
:1012A000001002400024F40000366E01002800F017
:1012B000548270B582B00446036813F0010F37D032
:1012C000A44A936803F00C03D26802F003020C2BCB
:1012D00023D0082B23D06368B3F5803F4ED0B3F5FD
:1012E000A02F51D09B4B1A6822F480321A601A68E2
:1012F00022F480221A606368002B52D0FFF7A6FD0B
:101300000546944B1B6813F4003F11D1FFF79EFD77
:10131000401B6428F5D9032028E2032AD9D18D4B3C
:101320001B6813F4003F03D06368002B00F01782A2
:10133000236813F0020F5DD0864A936803F00C0314
:10134000D26802F003020C2B3AD0042B3AD0E368A7
:10135000002B75D07F4A136843F480731360FFF746
:1013600075FD05467B4B1B6813F4806F5FD1FFF75B
:101370006DFD401B0228F5D90320F7E1754A13687B
:1013800043F480331360B6E703F18043A3F53C33A5
:101390001A6842F480221A601A6842F480321A6095
:1013A000A9E7FFF753FD05466A4B1B6813F4003F9E
:1013B000BED0FFF74BFD401B6428F5D90320D5E1D3
:1013C000022AC2D1634B1B6813F4806F03D0E36819
:1013D000002B00F0C6815F4A536823F0FE43216969
:1013E00043EA016353605C4B1868FFF7EBFC00288D
:1013F00040F0B981236813F0080F4CD063699BB3A8
:10140000544AD2F8943043F00103C2F89430FFF705
:101410001DFD05464F4BD3F8943013F0020F3AD11F
:10142000FFF714FD401B0228F4D903209EE1494A2E
:10143000536823F0FE43216943EA01635360D9E70F
:10144000444A136823F480731360FFF7FFFC0546DA
:10145000404B1B6813F4806FCCD0FFF7F7FC401BA8
:101460000228F5D9032081E13A4AD2F8943023F0DA
:101470000103C2F89430FFF7E9FC0546354BD3F879
:10148000943013F0020F06D0FFF7E0FC401B022857
:10149000F4D903206AE1236813F0040F00F081807F
:1014A0002C4B9B6D13F0805F36D12A4B9A6D42F026
:1014B00080529A659B6D03F080530193019B012537
:1014C000264B1B6813F4807F28D0A368012B39D0EA
:1014D000052B45D01F4BD3F8902022F00102C3F812
:1014E0009020D3F8902022F00402C3F89020A36843
:1014F000002B43D0FFF7AAFC0646164BD3F89030DA
:1015000013F0020F4CD1FFF7A1FC801B41F288338E
:101510009842F2D9032029E10025D1E70F4A136848
:1015200043F480731360FFF791FC06460B4B1B6876
:1015300013F4807FC9D1FFF789FC801B0228F5D9FD
:10154000032013E1034AD2F8903043F00103C2F8BC
:101550009030CCE7001002400800002000700040EE
:101560008A4BD3F8902042F00402C3F89020D3F8BD
:10157000902042F00102C3F89020B8E7FFF766FC24
:101580000646824BD3F8903013F0020F08D0FFF7D5
:101590005DFC801B41F288339842F2D90320E5E0DC
:1015A000E5B9236813F0200F35D0A369E3B1774A7A
:1015B000D2F8983043F00103C2F89830FFF746FCA8
:1015C0000546724BD3F8983013F0020F23D1FFF782
:1015D0003DFC401B0228F4D90320C7E06B4A936D01
:1015E00023F080539365DCE7684AD2F8983023F003
:1015F0000103C2F89830FFF729FC0546634BD3F886
:10160000983013F0020F06D0FFF720FC401B022891
:10161000F4D90320AAE0E369002B00F0A6805B4A1E
:10162000926802F00C020C2A69D0022B1DD0574B95
:101630001A6822F080721A60DA6822F00302DA6017
:10164000DA6822F0887222F48032DA60FFF7FEFB5B
:1016500004464E4B1B6813F0007F4ED0FFF7F6FB9D
:10166000001B0228F5D9032080E0484A136823F0C4
:1016700080731360FFF7EAFB0546444B1B6813F0C9
:10168000007F06D0FFF7E2FB401B0228F5D90320BC
:101690006CE03E4AD3683E491940236A606A0138CB
:1016A00043EA0013A06A43EA0023206B4008013894
:1016B00043EA4053606B4008013843EA4063E06A04
:1016C00043EAC0631943D160136843F08073136029
:1016D000D36843F08073D360FFF7B8FB04462B4B0D
:1016E0001B6813F0007F06D1FFF7B0FB001B022838
:1016F000F5D903203AE0002038E0002036E0012B45
:1017000036D0224BDB6803F00301226A914231D1CB
:1017100003F0F002616A0139B2EB011F2CD103F42E
:10172000FE42A16AB2EB012F28D103F07842E16AB0
:10173000B2EBC16F24D103F4C001226B5208013A0D
:10174000B1EB425F1ED103F0C063626B5208013AF5
:10175000B3EB426F18D1002008E001207047012050
:1017600004E0012002E0012000E0002002B070BD92
:101770000120FBE70120F9E70120F7E70120F5E769
:101780000120F3E70120F1E70120EFE7001002401C
:101790000C809F011E4B9B6803F00C03042B33D07D
:1017A0001B4B9B6803F00C03082B2FD0184B9B6836
:1017B00003F00C030C2B01D000207047144BDA68A7
:1017C00002F00302DB68C3F303130133032A11D0D1
:1017D0001048B0FBF3F00E4BDB68C3F3062303FBAA
:1017E00000F00B4BDB68C3F3416301335B00B0FBDC
:1017F000F3F070470848B0FBF3F0054BDB68C3F328
:10180000062303FB00F0ECE70248704702487047EC
:10181000001002400024F40000366E01002800F0A1
:10182000E680F8B50C460546744B1B6803F00F03C1
:101830008B420BD2714A136823F00F030B431360E2
:10184000136803F00F038B4240F0D3802E6816F02C
:1018500001065FD06B68032B2FD0022B4DD0684B55
:101860001B6813F4806F00F0C680FFF793FF654B91
:1018700098424DD9624A936823F0F00343F0800305
:10188000936080265E4A936823F0030369680B43E4
:101890009360FFF7DBFA0746594B9B6803F00C0394
:1018A0006A68B3EB820F35D0FFF7D0FAC01B41F264
:1018B00088339842F0D9032078E0514B1B6813F02D
:1018C000007F01D1012071E0FFF7C4FC4D4B98422D
:1018D0001AD94B4B9B6813F0F00F05D02E6816F009
:1018E0000206CFD0AB688BB9454A936823F0F0036A
:1018F00043F0800393608026C4E7414B1B6813F4D8
:10190000003FB2D1012051E00026BBE70026B9E735
:101910000026B7E72B6813F0020F48D013F0040F2E
:1019200004D0374A936843F4E06393602B6813F064
:10193000080F06D0324A936823F47C5343F4E063E3
:1019400093602F4A936823F0F003A9680B439360D8
:101950002A4B1B6803F00F03A34230D82B6813F007
:10196000040F06D0264A936823F4E063E9680B432A
:1019700093602B6813F0080F07D0214A936823F473
:101980006053296943EAC1039360FFF703FF1C4BCF
:101990009B68C3F303131C4AD35C03F01F03D840B6
:1019A0001A4B18601A4B1868FFF70CFAF8BD802E16
:1019B000CED1134A936823F0F0039360C8E70F4A2F
:1019C000136823F00F0323431360FFF73FFA064623
:1019D0000A4B1B6803F00F03A342BFD0FFF736FA90
:1019E000801B41F288339842F2D90320DEE70120C0
:1019F00070470120DAE70120D8E700BF002002404D
:101A00000010024000B4C404943500080000002017
:101A100008000020014B1868704700BF000000203C
:101A200008B5FFF7F7FF054B9B68C3F30223044A91
:101A3000D35C03F01F03D84008BD00BF0010024074
:101A4000A435000808B5FFF7E5FF054B9B68C3F315
:101A5000C223044AD35C03F01F03D84008BD00BF73
:101A600000100240A4350008F0B583B004460368B6
:101A700013F4002F69D0AE4B9B6D13F0805F1ED125
:101A8000AB4B9A6D42F080529A659B6D03F0805388
:101A90000193019B0126A74A136843F480731360E6
:101AA000FFF7D4F90546A34B1B6813F4807F08D1D8
:101AB000FFF7CCF9401B0228F5D9032502E00026E8
:101AC000E9E7002545BB9A4BD3F8903013F44073F7
:101AD00015D0226C9A4212D0954AD2F8903023F455
:101AE0004073D2F8901041F48031C2F89010D2F8CF
:101AF000901021F48031C2F89010C2F8903013F0A9
:101B0000010F10D145B98A4AD2F8903023F44073BE
:101B1000216C0B43C2F89030C6B1854A936D23F017
:101B20008053936512E0FFF791F90746804BD3F895
:101B3000903013F0020FE5D1FFF788F9C01B41F296
:101B400088339842F2D90325DCE70025236813F097
:101B5000010F08D0764AD2F8883023F00303616879
:101B60000B43C2F88830236813F0020F08D0704A84
:101B7000D2F8883023F00C03A1680B43C2F88830F8
:101B8000236813F0040F08D0694AD2F8883023F094
:101B90003003E1680B43C2F88830236813F0080F64
:101BA00008D0634AD2F8883023F0C00321690B4380
:101BB000C2F88830236813F0200F08D05C4AD2F8AE
:101BC000883023F4406361690B43C2F8883023688E
:101BD00013F0400F08D0564AD2F8883023F440530F
:101BE000A1690B43C2F88830236813F0800F08D036
:101BF0004F4AD2F8883023F44043E1690B43C2F8DE
:101C00008830236813F4807F08D0494AD2F888309E
:101C100023F44033216A0B43C2F88830236813F45D
:101C2000007F08D0424AD2F8883023F44023616A0A
:101C30000B43C2F88830236813F4806F0CD03C4A01
:101C4000D2F8883023F44013A16A0B43C2F88830DD
:101C5000A36AB3F5801F57D0236813F4006F0CD02C
:101C6000334AD2F8883023F44003E16A0B43C2F8C8
:101C70008830E36AB3F5800F4BD0236813F4805F9C
:101C80000CD02B4AD2F8883023F04073216B0B43E1
:101C9000C2F88830236BB3F1807F3FD0236813F400
:101CA000005F0CD0224AD2F8883023F04063616B89
:101CB0000B43C2F88830636BB3F1006F33D02368F5
:101CC00013F4804F0CD01A4AD2F8883023F04063C6
:101CD000A16B0B43C2F88830A36BB3F1006F2BD01C
:101CE000236813F4004F0CD0114AD2F8883023F047
:101CF0004053E16B0B43C2F88830E36BB3F1805F74
:101D00001FD0284603B0F0BDD36843F48013D360DE
:101D1000A2E7D36843F48013D360AEE7D36843F4FB
:101D20008013D360BAE7D36843F48013D360C6E767
:101D30000010024000700040D36843F48013D36069
:101D4000CEE7D36843F48033D360DAE710B4036A94
:101D5000046A24F001040462846924F0F00C4CEA63
:101D6000021223F00A030B43826103625DF8044B05
:101D7000704710B4036A23F0100303628469036A96
:101D800024F4704C4CEA023223F0A00343EA01131E
:101D9000826103625DF8044B7047836823F440134B
:101DA00023F070030B4343F0070383607047000088
:101DB00090F83D30DBB2012B2DD1022380F83D306D
:101DC0000368184A934218D0B3F1804F15D0A2F59A
:101DD0009432934211D002F5806293420DD002F505
:101DE0009632934209D002F54062934205D01A68B8
:101DF00042F001021A600020704799680A4A0A40BE
:101E0000062A0AD0B2F5803F09D01A6842F00102D2
:101E10001A600020704701207047002070470020A2
:101E2000704700BF002C0140070001000368196AD9
:101E300041F21112114208D1196A44F2444211428E
:101E400003D11A6822F001021A60012380F83D30A4
:101E50000020704703682C4A90420ED0B0F1804FAA
:101E60000BD0A2F59432904207D002F580629042E6
:101E700003D002F59632904203D123F070034A68F2
:101E80001343214A90421AD0B0F1804F17D0A2F5E7
:101E90009432904213D002F5806290420FD002F546
:101EA000963290420BD002F54062904207D002F584
:101EB0008062904203D002F58062904203D123F405
:101EC0004073CA68134323F080034A6913430360D5
:101ED0008B68C3620B6883620B4B98420FD003F58B
:101EE000006398420BD003F54063984207D003F596
:101EF0008063984203D003F58063984201D10B6957
:101F00000363012343617047002C014060B310B5A7
:101F1000044690F83D3013B3022384F83D30214647
:101F200051F8040BFFF796FF012384F8483084F83A
:101F30003E3084F83F3084F8403084F8413084F8F3
:101F4000423084F8433084F8443084F8453084F8D3
:101F5000463084F8473084F83D30002010BD80F8CA
:101F60003C30FEF701FFD7E70120704710B48468CA
:101F700024F47F4C42EA03220A4342EA0C028260C4
:101F80005DF8044B7047000090F83C30012B00F0E6
:101F90008F8010B50446012380F83C30022380F87E
:101FA0003D3002689068434B034093600B68702B90
:101FB00055D031D8502B6CD00CD9602B2AD1CA689F
:101FC00049682068FFF7D5FE60212068FFF7E5FE2D
:101FD000002035E0402B0AD1CA6849682068FFF725
:101FE000B5FE40212068FFF7D8FE002028E05BD82E
:101FF000202B07D003D9302B04D0012020E00BB1D7
:10200000102B05D119462068FFF7C7FE002017E006
:10201000012015E0012013E0B3F5005F2CD00BD9AF
:10202000254A9342EED012D9244A9342EAD0303264
:102030009342E7D0012003E0B3F5805F36D1002062
:10204000012384F83D30002384F83C3010BDB3F107
:10205000101FD7D0103A9342D4D00120F0E7CB68BC
:102060004A6889682068FFF781FF2268936843F017
:10207000770393600020E3E7CB684A6889682068AB
:10208000FFF774FF2268936843F480439360002055
:10209000D6E7CA6849682068FFF758FE50212068D3
:1020A000FFF77BFE0020CBE70120C9E70120C7E74F
:1020B000022070478800CEFF300010004000100062
:1020C00090F83C20012A40D030B40346012280F829
:1020D0003C20022280F83D200068426884681C4D44
:1020E000A84203D005F50065A84203D122F470028E
:1020F0004D682A4322F0007222F070020D682A43D4
:1021000042601A681248824212D0B2F1804F0FD05A
:10211000A0F5943082420BD000F58060824207D057
:1021200000F59630824203D000F54060824204D12F
:1021300024F08004896821439160012283F83D20C6
:10214000002083F83C0030BC70470220704700BF7D
:10215000002C014070B5044601688368026913438E
:1021600042691343C269134308688B4A02401A4309
:102170000A602268536823F44053E1680B435360BC
:10218000A1692268854B9A4201D0236A194393685A
:1021900023F06E4323F430630B4393602268D36AC9
:1021A00023F00F03616A0B43D36223687C4A934296
:1021B00023D07C4A934234D07B4A93424AD07B4A14
:1021C000934259D0754A934268D0102273498B428A
:1021D00000F09580E069B0F5004F00F0D280082A49
:1021E00000F24F81DFE812F01201340110014D01BD
:1021F00037014D014D014D013A0102F55842D2F827
:10220000882002F00302032A09D8DFE802F0020462
:102210005C060122DAE70422D8E70822D6E710227A
:10222000D4E702F5E632D2F8882002F00C020C2A3C
:102230000ED8DFE802F0070D0D0D090D0D0D4A0D4A
:102240000D0D0B000022C1E70422BFE70822BDE705
:102250001022BBE702F5E432D2F8882002F0300207
:10226000202A34D004D8A2B3102A34D10422ADE7F6
:10227000302A32D10822A9E702F5E232D2F88820CA
:1022800002F0C002802A2AD004D852B3402A2AD1B0
:1022900004229BE7C02A28D1082297E702F5C8321A
:1022A000D2F8882002F44062B2F5006F1FD005D842
:1022B000FAB1B2F5806F1ED1042287E7B2F5406F04
:1022C0001BD1082282E7022280E702227EE7022257
:1022D0007CE700227AE7102278E7102276E70222D4
:1022E00074E7002272E7102270E710226EE70222E4
:1022F0006CE700226AE7102268E7102266E7082AE6
:1023000000F2AF80DFE802F008AD3BAD38ADADAD17
:1023100005004FF4004004E0FFF782FB002800F0C6
:10232000A280626A224B33F81220B0FBF2F3656898
:1023300005EB4501994200F29880B3EB053F00F2AE
:102340009680002633463146FEF7A8FA090241EA94
:10235000106100026B08C0182A46334641F10001A3
:10236000FEF79CFAA0F54072124B9A4200F281806F
:102370002368D860304662E0FFF70CFACEE70E48DB
:10238000CFE7082A77D8DFE802F0193905763C76DE
:1023900076761D00084815E0F369FFCF0080004005
:1023A000003801400044004000480040004C00401C
:1023B000AC350008FFFC0F000024F400FFF730FBF1
:1023C00000285AD0626A324B33F81230B0FBF3F077
:1023D0006268530803EB4003B3FBF2F3A3F110016F
:1023E0004FF6EF7291424AD89AB222F00F02C3F32D
:1023F000420313432268D360002020E0FFF722FB52
:10240000DEE7FFF7C7F9DBE7224803E0FFF708FB49
:10241000002838D0626A1E4B33F81230B0FBF3F05C
:10242000636800EB5300B0FBF3F0A0F110024FF62D
:10243000EF739A4229D8236880B2D8600020012324
:10244000A4F86A30A4F8683000232367636770BD7E
:10245000FFF7F8FADCE7FFF79DF9D9E74FF4004002
:10246000D8E70120EBE70020E9E70120E7E70120BA
:10247000E5E70120E3E70120E1E70020DFE70120B5
:10248000DDE70120DBE70020D9E70120D7E700BF27
:10249000AC3500080024F400836A13F0010F06D065
:1024A0000268536823F40033C16A0B435360836AA4
:1024B00013F0020F06D00268536823F48033016BD7
:1024C0000B435360836A13F0040F06D0026853680D
:1024D00023F48023416B0B435360836A13F0080F8E
:1024E00006D00268536823F40043816B0B435360AA
:1024F000836A13F0100F06D00268936823F48053A8
:10250000C16B0B439360836A13F0200F06D00268FF
:10251000936823F40053016C0B439360836A13F0B8
:10252000400F0AD00268536823F48013416C0B43B8
:102530005360436CB3F5801F0BD0836A13F0800F98
:1025400006D00268536823F40023C16C0B43536028
:1025500070470268536823F4C003816C0B435360D7
:10256000EBE72DE9F84305460F4616469946DDF898
:1025700020802B68DC6937EA04040CBF01240024A6
:10258000B44257D1B8F1FF3FF3D0FEF75FFCA0EBA8
:10259000090040452FD8B8F1000F2CD02B681A68DD
:1025A00012F0040FE5D0DA6912F4006FE1D04FF4B5
:1025B00000621A622A6852E8003F23F4D07342E8AE
:1025C00000310029F6D12A6802F1080353E8003FE0
:1025D00023F00103083242E800310029F3D120231F
:1025E000C5F88430C5F88830C5F88C30002385F8EC
:1025F000803003201FE02A6852E8003F23F4D073A4
:1026000042E800310029F6D12A6802F1080353E8B4
:10261000003F23F00103083242E800310029F3D1E2
:102620002023C5F88430C5F88830002385F8803031
:10263000032000E00020BDE8F8832DE9F04182B0DE
:102640001E46D0F88430202B58D104460D469046C3
:10265000002957D0002A57D090F88030012B55D050
:10266000012380F880300023C0F88C302123C0F88B
:102670008430FEF7EBFB0746A4F85480A4F856809C
:10268000A368B3F5805F05D04FF00008002384F8FD
:10269000803014E0236913B14FF00008F6E7A84634
:1026A0000025F3E738F8023B2268C3F3080393627E
:1026B000B4F8562092B2013A92B2A4F85620B4F877
:1026C00056309BB273B100963B46002280212046D3
:1026D000FFF747FFE0B9002DE4D015F8012B236880
:1026E0009A62E5E700963B46002240212046FFF72C
:1026F00038FF78B92023C4F8843000E0022002B00B
:10270000BDE8F0810120FAE70120F8E70220F6E7B2
:102710000320F4E70320F2E730B583B0044600233A
:10272000C0F88C30FEF792FB05462268126812F062
:10273000080F0FD123681B6813F0040F18D1202352
:10274000C4F88430C4F888300020E06684F8800043
:1027500003B030BD6FF07E430093034600224FF478
:1027600000112046FFF7FDFE0028E3D00320EFE72D
:102770006FF07E4300932B4600224FF480012046E9
:10278000FFF7EFFE0028DAD00320E1E778B310B5B9
:102790000446D0F884300BB32423C4F88430226874
:1027A000136823F0010313602046FFF7D3FC0128D0
:1027B00013D0A36ABBB92268536823F490435360D3
:1027C0002268936823F02A0393602268136843F019
:1027D000010313602046FFF79FFF10BD80F8803093
:1027E000FEF780FAD8E72046FFF756FEE3E7012020
:1027F00070470000436E2BB90123A0F86A30A0F89F
:102800006830704730B403689A68C2F342629968CE
:10281000490F094D6B5CDB00084C615C93FBF1F3E5
:10282000A0F86A30AB5CDB00A25C93FBF2F3A0F88B
:10283000683030BC704700BFCC350008C435000894
:1028400090F88030012B18D0012380F880302423A9
:10285000C0F8843003681A68196821F00101196012
:1028600022F000520023436601680A602022C0F86B
:10287000842080F88030184670470220704738B5B1
:1028800090F88030012B1DD00446012380F8803061
:102890002423C0F8843003681D681A6822F00102FE
:1028A0001A600268936823F0604319439160FFF750
:1028B000A1FF23681D602023C4F88430002084F821
:1028C000800038BD0220FCE738B590F88030012B3D
:1028D0001DD00446012380F880302423C0F88430C2
:1028E00003681D681A6822F001021A600268936882
:1028F00023F0606319439160FFF77CFF23681D603C
:102900002023C4F88430002084F8800038BD0220E1
:10291000FCE700000D4885460D480E490E4A00238D
:1029200002E0D458C4500433C4188C42F9D30B4A83
:102930000B4C002301E013600432A242FBD3FEF7EC
:1029400037FA00F039F8FEF747F9FEE7008000207B
:10295000000000205C000020183600085C00002009
:10296000BC020020FEE700000EB400B59CB01DAB19
:10297000029006906FF000410948079104910949BF
:1029800053F8042B05910068019302A900F082F925
:10299000029B00221A701CB05DF804EB03B0704774
:1029A000580000200802FFFF02440346934200D172
:1029B000704703F8011BF9E770B50D4D0D4C641B12
:1029C000A4100026A64209D10B4D0C4C00F0D2FDFC
:1029D000641BA4100026A64205D170BD55F8043B27
:1029E00098470136EEE755F8043B98470136F2E781
:1029F000103600081036000810360008143600089B
:102A00007047704737B5002944D051F8043C019015
:102A1000002BA1F10404B8BFE41800F0D5F81E4A59
:102A20000198136833B96360146003B0BDE83040A7
:102A300000F0D0B8A34208D9256861198B4201BFC4
:102A400019685B6849192160EDE71A465B680BB1AC
:102A5000A342FAD911685518A5420BD12468214424
:102A60005418A3421160E0D11C685B6853600C44A9
:102A70001460DAE702D90C230360D6E725686119F0
:102A80008B4204BF19685B68636004BF4919216009
:102A90005460CAE703B030BDB002002070B50E4EDE
:102AA0000C463168054611B900F09CFB30602146A8
:102AB000284600F097FB431C0AD0C41C24F00304F2
:102AC000A04207D0211A284600F08CFB013001D12A
:102AD0004FF0FF34204670BDB40200202DE9F041D4
:102AE000CD1C25F0030508350C2D38BF0C25002D15
:102AF000074601DBA94205D90C233B60002630467E
:102B0000BDE8F0812F4E00F05FF833681C4644BBEF
:102B100029463846FFF7C2FF431C04464FD13468AC
:102B20002646002E42D1002C43D023683146384639
:102B300004EB030800F056FB80453AD123680335C7
:102B4000ED1A25F0030508350C2D38BF0C25294654
:102B50003846FFF7A3FF01302BD023682B442360B6
:102B60000EE02268521B1ED40B2A16D96119A3420B
:102B7000256018BF5960636808BF316062514B60BF
:102B8000384604F10B0600F025F826F00706231D51
:102B9000F21AB4D09B1BA350B1E76268A3420CBFEA
:102BA00032605A60ECE723466468B0E734467668E2
:102BB000B7E70C233B60384600F00CF89FE7256030
:102BC000DEE700BFB00200200148FFF719BF00BFD9
:102BD000AC0200200148FFF714BF00BFAC02002088
:102BE0002DE9F0478E681F46BE420B6882460C46B0
:102BF00090462CD88A8912F4906F26D065690969AD
:102C000005EB4505A3EB010905EBD5757B1C4B4492
:102C10006D109D4238BF1D46530527D52946FFF745
:102C20005DFF064660B321694A4600F0EBFAA389CE
:102C300023F4906343F08003A381266165614E44D1
:102C4000A5EB09052660A5603E46BE4200D93E467A
:102C500020683246414600F0ABFAA3689B1BA36094
:102C60002368334423600020BDE8F0872A4600F043
:102C7000D7FA06460028E0D121695046FFF7C2FE88
:102C80000C23CAF80030A38943F04003A3814FF01E
:102C9000FF30E9E72DE9F04F98468B891B069DB080
:102CA00007460D4614460ED50B6963B94021FFF760
:102CB00015FF2860286120B90C233B604FF0FF30DE
:102CC000D0E040236B610023099320238DF8293045
:102CD000CDF80C803023DFF8A4818DF82A304FF036
:102CE000010923469A4613F8012B0AB1252AF9D186
:102CF000BAEB040B0BD05B46224629463846FFF759
:102D00006FFF013000F0A980099A5A4409929AF89D
:102D10000030002B00F0A18000234FF0FF32CDE9FE
:102D200005230AF1010A049307938DF853301A938F
:102D30005446052214F8011B5048FDF759FA049A2D
:102D4000D8B9D00644BF20238DF85330110744BFB3
:102D50002B238DF853309AF800302A2B15D0079A80
:102D6000544600204FF00A0C214611F8013B303B3D
:102D7000092B4DD9B0B1079214E0A0EB080309FA72
:102D800003F313430493A246D2E7039B191D1B6868
:102D90000391002BBBBF5B4242F0020207930793F3
:102DA000B8BF049223782E2B0CD163782A2B34D110
:102DB000039B1A1D1B680392002BB8BF4FF0FF3313
:102DC00002340593DFF8C4A0217803225046FDF7B2
:102DD0000FFA38B1049BA0EB0A0040228240134353
:102DE0000134049314F8011B25488DF8281006229D
:102DF000FDF7FEF9002838D0224B1BBB039B07339D
:102E000023F0070308330393099B3344099368E7CE
:102E10000CFB02320C460120A6E700230134059387
:102E200019464FF00A0C204610F8012B303A092AB7
:102E300003D9002BC6D00591C4E70CFB0121044641
:102E40000123F0E703AB00932A460F4B04A9384651
:102E5000AFF30080421C0646D6D1AB895B063FF536
:102E60002DAF09981DB0BDE8F08F03AB00932A4643
:102E7000054B04A9384600F079F8EBE7D435000893
:102E8000DE35000800000000E12B0008DA350008FC
:102E90002DE9F047164699468A680B69DDF82080CF
:102EA0009342B8BF1346336091F8432007460C465F
:102EB0000AB1013333602368990642BF3368023395
:102EC0003360256815F0060506D104F1190AE36898
:102ED00032689B1AAB4226DC94F84320131E22680A
:102EE00018BF012392062BD404F143024946384609
:102EF000C04701301ED02368226903F00603042B6B
:102F000002BFE5683368ED1AA3680CBF25EAE575D2
:102F100000259342C4BF9B1AED1800261A34B5420F
:102F20001AD1002008E00123524649463846C047DE
:102F3000013003D14FF0FF30BDE8F0870135C6E71F
:102F4000E1185A1C302081F84300224494F84510BF
:102F500082F843100233C7E7012322464946384628
:102F6000C0470130E6D00136D9E700002DE9FF4720
:102F70000F7E0C9D782F914680460C469A4601F1B3
:102F8000430207D8622F0AD8002F00F0D480582FB0
:102F900000F0C08004F1420584F842703AE0A7F1E5
:102FA0006303152BF6D801A151F823F00530000872
:102FB00019300008952F0008952F0008952F00085C
:102FC000952F000819300008952F0008952F00084C
:102FD000952F0008952F00081D3100084530000886
:102FE000D7300008952F0008952F00083F310008C2
:102FF000952F000845300008952F0008952F0008F0
:10300000DF3000082B681A1D1B682A6004F1420596
:1030100084F8423001239FE020682B68070603F103
:103020000401296001D51E6803E04606FBD5B3F90B
:103030000060002E03DA2D23764284F843305A488C
:103040000A2312E02B682068191D2960050601D5A6
:103050001E6802E04106FBD51E8853486F2F0CBF47
:1030600008230A23002184F843106568A560002D19
:10307000A2BF216821F0040121600EB9002D4BD0C0
:103080001546B6FBF3F103FB1167C75D05F8017D3B
:103090003746BB420E46F4D9082B0BD12368DE0716
:1030A00008D5236961689942DEBF302305F8013CE9
:1030B00005F1FF35521B2261CDF800A04B4603AA53
:1030C00021464046FFF7E4FE01304AD14FF0FF3081
:1030D00004B0BDE8F087236843F020032360334841
:1030E000782784F84570236829681F0651F8046B17
:1030F00002D45F0648BFB6B2DF0748BF43F02003E3
:10310000296048BF23601EB9236823F02003236091
:103110001023A7E72448E4E71546BDE72B68266897
:103120006169181D286035061B6801D5196002E029
:103130007006FBD51980002323611546BCE72B6878
:103140001A1D2A601D68626800212846FDF750F8A4
:1031500008B1401B606063682361002384F843303A
:10316000AAE723692A4649464046D0470130ADD0F8
:1031700023689B0713D4E068039B9842B8BF1846A6
:10318000A6E70123324649464046D04701309DD04C
:103190000135E36803995B1AAB42F2DCEBE70025EB
:1031A00004F11906F5E700BFE5350008F63500081B
:1031B000884210B501EB020402D98442234607D8A5
:1031C000431EA14208D011F8012B03F8012FF8E7A4
:1031D000024401468A4200D110BD13F8014D02F8A5
:1031E000014DF7E738B5064D0023044608462B602D
:1031F00000F04EF8431C02D12B6803B1236038BDA8
:10320000A80200200A44914200F1FF3300D1704728
:1032100010B511F8014B03F8014F9142F9D110BDDF
:103220002DE9F041804614460E4621B9BDE8F04133
:103230001146FFF753BC2AB9FFF7E4FB25462846A1
:10324000BDE8F08100F01BF88442074602D8B4EBD9
:10325000500F12D821464046FFF740FC0546002893
:10326000EDD0BC422246314628BF3A46FFF7CAFF9E
:1032700031464046FFF7C6FBE1E73546DFE751F848
:10328000043C181F002BBCBF0B58C018704700002F
:10329000044A05491368002B08BF0B461844106008
:1032A00018467047B8020020C00200202DE9F04700
:1032B000089E0D4604460F46002B4AD18A4294468A
:1032C00065D9B2FA82F343B102FA03FCC3F12002DA
:1032D0009F4020FA02F217439C404FEA1C4E1FFA0F
:1032E0008CF5B7FBFEF1220C0EFB117742EA074288
:1032F00001FB05F090420AD91CEB020201F1FF37F5
:1033000080F01C81904240F2198102396244121A05
:10331000A4B2B2FBFEF00EFB102244EA024400FB12
:1033200005F5A5420AD91CEB040400F1FF3280F038
:103330000781A54240F204816444023840EA01401A
:10334000641B00211EB1DC400023C6E90043BDE838
:10335000F0878B4208D9002E00F0ED800021C6E9ED
:1033600000050846BDE8F087B3FA83F1002949D18A
:10337000AB4202D3824200F2F880841A65EB03026A
:1033800001201746002EE2D0C6E90047DFE702B968
:10339000FFDEB2FA82F3002B40F090808A1A4FEAE7
:1033A0001C471FFA8CFE0121B2FBF7F507FB152025
:1033B000220C42EA00420EFB05F0904208D91CEBB9
:1033C000020205F1FF3802D2904200F2CB8045465E
:1033D000121AA4B2B2FBF7F007FB102244EA02442F
:1033E0000EFB00FEA64508D91CEB040400F1FF32D9
:1033F00002D2A64500F2BB801046A4EB0E0440EAC0
:1034000005409FE7C1F120078B4022FA07FC4CEAF8
:10341000030C05FA01F420FA07F3FD404FEA1C49BA
:103420002343B5FBF9F81FFA8CFE09FB18551C0C59
:1034300044EA054408FB0EF5A54202FA01F200FA3F
:1034400001F00BD91CEB040408F1FF3A80F08880EE
:10345000A54240F28580A8F102086444641B9DB235
:10346000B4FBF9F309FB134445EA044403FB0EFEE5
:10347000A64508D91CEB040403F1FF356CD2A64520
:103480006AD9023B644443EA0843A3FB0295A4EBD8
:103490000E04AC42C846AE4656D353D056B1B0EB3C
:1034A000080264EB0E0404FA07F7CA40CC40174345
:1034B000C6E9007418460021BDE8F087C3F1200179
:1034C00002FA03FC20FA01F225FA01F19D402A4399
:1034D0004FEA1C471FFA8CFEB1FBF7F007FB1015F3
:1034E000110C41EA054100FB0EF58D4204FA03F48C
:1034F00008D91CEB010100F1FF382FD28D422DD9E4
:1035000002386144491B92B2B1FBF7F507FB151174
:1035100042EA014205FB0EF1914208D91CEB02027E
:1035200005F1FF3816D2914214D9023D6244521A75
:1035300045EA004138E73146304608E73946E6E6D5
:103540001046FBE64845A9D2B9EB020865EB0C0E24
:10355000013BA3E74546EAE72B4694E74046D1E71F
:10356000D0467BE7023D624432E708460AE76444FE
:10357000023842E7F8B500BFF8BC08BC9E46704769
:0C358000F8B500BFF8BC08BC9E467047C0
:10358C002564636D0D0A00000000000000000000BF
:10359C0001020304060708090000000001020304ED
:1035AC00010002000400060008000A000C001000D4
:1035BC002000400080000001080402040801010101
:1035CC000101010307010000232D302B2000686C42
:1035DC004C0065666745464700303132333435362A
:1035EC003738394142434445460030313233343563
:0C35FC0036373839616263646566000090
:08360800A4FCFF7F010000009B
:04361000F5080008B1
:04361400D1080008D1
:103618000024F40001000000100000000000000079
:1036280070010020D80100204002002000000000A6
:103638000000000000000000000000000000000082
:103648000000000000000000000000000000000072
:103658000000000000000000000000000000000062
:0C36680000000000000000000C0000202A
:0400000508002915B1
:00000001FF
